:0E0000000C944B000C9400000C9400000C9427
:10000E0000000C9400000C9400000C9400000C9462
:10001E0000000C9400000C9400000C9400000C9452
:10002E0000000C9400000C9400000C9400000C9442
:10003E0000000C9400000C9400000C9400000C9432
:10004E0000000C9400000C9400000C9400000C9422
:10005E0000000C9400000C94000000000000000052
:10006E00000000000000000080004000C0002000E2
:10007E00A0006000E000100090000C00030068007B
:10008E001300000374000000F894EE27EFBBF1E0BC
:10009E00F5BFE5BF8DE0A2E0BB27ED938A95E9F7AA
:1000AE0080E098E0A0E0B1E0ED930197E9F7E8E891
:1000BE00F0E085919591009761F0A591B59105902D
:1000CE001590BF01F00105900D920197E1F7FB012C
:1000DE00F0CFE0E0EEBBEFEFEDBFE8E0EEBFC0E04B
:1000EE00D3E00C947A00ECEFEAB9E3E0EBB9A0911F
:1000FE001403B0911503119711F45A9A01C05A982E
:10010E0048991FC0489BFECFE92DFA2D31979E2EA0
:10011E00AF2EFF23B2F4E2D031977E2E8F2EFF2327
:10012E0082F4E3D031975E2E6F2EFF2352F4E4D08B
:10013E0031973E2E4F2EFF2322F4E5E0F0E03E2EC7
:10014E004F2E49991FC0499BFECFE92DFA2D3196AE
:10015E009E2EAF2EFF23B2F4C1D031967E2E8F2E5F
:10016E00FF2382F4C2D031965E2E6F2EFF2352F4FF
:10017E00C3D031963E2E4F2EFF2322F4E5E0F0E061
:10018E003E2E4F2EED2DFE2D3196DE2EEF2EE83E1D
:10019E00A3E0FA070CF45EC0DD24EE24EB2DFC2D5B
:1001AE003196BE2ECF2EFC970CF454C0BB24CC241B
:1001BE00E1E0F0E0E315F40571F4E2E0F0E0E515BE
:1001CE00F60549F400240714080429F4E8E0F0E0E9
:1001DE00E915FA050CF01AC0A0911403B09115039D
:1001EE00119731F4E0E0E0931403E093150306C099
:1001FE00E1E0F0E0E0931403F0931503332444247C
:10020E00552466245524662433244424E92DFA2DDE
:10021E0031969E2EAF2E3A97ECF09924AA24E72D14
:10022E00F82D31967E2E8F2E3697A4F077248824C3
:10023E00E52DF62D31965E2E6F2E3A975CF05524F5
:10024E006624E32DF42D31963E2E4F2E329714F068
:10025E00332444245B9A80ED97E00197F1F7A6E1F1
:10026E00B3E0ED91FD913196FE93EE9334972CF021
:10027E00E0E0E0931603E0931703E0911603F0918C
:10028E001703309721F43FD0E32DF42D17C0E13042
:10029E00A0E0FA0721F437D0E52DF62D0FC0E2309D
:1002AE00A0E0FA0721F42FD0E72DF82D07C0E33098
:1002BE00A0E0FA0761F427D0E92DFA2DA0E0B3E013
:1002CE00EE0FFF1FAE0FBF1FEC91E029EBB95B984D
:1002DE0080ED97E00197F1F70ACFFFCFE9E0F0E06C
:1002EE009E2EAF2EE72DF82D0895E5E0F0E07E2E40
:1002FE008F2EE52DF62D0895E9E0F0E05E2E6F2E9F
:10030E00E32DF42D0895EBB1EF70EBB90BB008951A
:00000001FF
